:020000020000FC
:100000000FEF0DBF08E00EBFE0E0F1E00027019325
:10001000F830E9F7EF3FD9F7EE27FF270024112446
:1000200022243324442455246624772488249924C4
:10003000AA24BB24CC24DD24EE24FF24002711278E
:10004000222733274427552766277727882799278C
:10005000AA27BB27CC27DD272DE431E00C94330001
:1000600000000C9430000000A0E0B1E0E4E0F1E01A
:100070000E9467000D923197D9F7A4E0B2E0E4E066
:10008000F1E00E9467000D923197D9F7CDB7DEB746
:10009000C850D240CDBFDEBFA0E0B1E0E4E0F1E067
:1000A0000D9109933197E1F7A4E0B2E0E4E0F1E0CB
:1000B0000D9109933197E1F7CDB7DEB708E0C00F96
:1000C00002E0D01FCDBFDEBF00000C943000EF93E4
:1000D000FF93E22FF32F220F331F220F331FE20F64
:1000E000F31F220F331FE20FF31F220F331F220FC4
:1000F000331F220F331FE20FF31F31962E2F3F2F96
:10010000F07EF03C30F7F295F695F3950F2EFF91C7
:04011000EF910895CE
:00000001FF
